:040000002DEF00F0F0
:100008004782F2AA0AEF00F00CEF00F02BEF00F0A5
:10001800F2A411EF00F013EF00F02BEF00F0374AD5
:10002800382AB80E375C0B0E3858D8A01EEF00F0EF
:1000380020EF00F026EF00F0010E3B6E000E386E48
:10004800000E376EF80ED76E300ED66EF2944792C9
:06005800110097EF07F014
:10060000001F1F1F1F00000000000000001F1F1F11
:100610001F1F1F1F1F1F1F1F00001F1F1F1F1F1F28
:100620001F000000000000000000000000000000AB
:1006300000000000000000000000000000000000BA
:10064000001F1F1C1C00000000000000001C1C1FDD
:100650001F1F1F0F0F0F0F1F1F1F1F1E1E1E1E1FEE
:100660001F0103070F000000001E1E1E1E1E1E1E7F
:100670001E1F1F000000001F1F1E1E1E1E1E1E1F0D
:100680001F1F1800000000000000000000000018FC
:100690001F1F070707070707071F1C1C1C1C1C1C24
:1006A0001F1F1C1C1C1C1C1C1C1C1C1C1C1C1C1C84
:1006B0001C1F0000000000001F1C1C1C1C1C1C1C1C
:1006C0001F6D726368756E636B7565652E626C6F06
:1006D000672D004249472044696769747320746537
:1006E0007374004D724368756E636B756565212187
:0B06F0000073706F742E636F6D0000CC
:1006FC00176E0A0E176085EF03F087EF03F06EEFAD
:10070C0004F039503A10D8A48EEF03F090EF03F0B8
:10071C0092EF03F06EEF04F01350D8A498EF03F0AF
:10072C009AEF03F0A0EF03F01450800F3BEC08F0AD
:10073C00CCEF03F01304D8A4A6EF03F0A8EF03F05A
:10074C00AEEF03F01450C00F3BEC08F0CCEF03F00D
:10075C00020E1318D8A4B5EF03F0B7EF03F0BDEFFA
:10076C0003F01450940F3BEC08F0CCEF03F0030EA5
:10077C001318D8A4C4EF03F0C6EF03F0CCEF03F0CA
:10078C001450D40F3BEC08F0CCEF03F01750040DD1
:10079C00F3CF15F0F4CF16F015503924D96E16504E
:1007AC003A20DA6EDF505BEC08F01750040D39C0BC
:1007BC0015F03AC016F0F3501526F4501622010E1F
:1007CC001524D96E000E1620DA6EDF505BEC08F0A3
:1007DC001350156E166A010E1526000E16221550B2
:1007EC001610D8A4FCEF03F0FEEF03F004EF04F0B6
:1007FC001450800F3BEC08F048EF04F01350156ECA
:10080C00166A010E1526000E162215041610D8A411
:10081C0012EF04F014EF04F01AEF04F01450C00FB0
:10082C003BEC08F048EF04F01350156E166A010EFD
:10083C001526000E1622020E15181610D8A429EF34
:10084C0004F02BEF04F031EF04F01450940F3BEC58
:10085C0008F048EF04F01350156E166A010E1526B9
:10086C00000E1622030E15181610D8A440EF04F033
:10087C0042EF04F048EF04F01450D40F3BEC08F0B6
:10088C0048EF04F01750040D39C015F03AC016F0BB
:10089C00F3501526F4501622020E1524D96E000EB4
:1008AC001620DA6EDF505BEC08F01750040D39C0DF
:1008BC0015F03AC016F0F3501526F4501622030E1C
:1008CC001524D96E000E1620DA6EDF505BEC08F0A2
:1008DC00120020EE13F010EE2DF0090EDBCFE3FF2B
:1008EC00E806FCE22D502E10D8B47FEF04F081EF17
:1008FC0004F0D9EF04F036C01DF0010E1E6E1D2A57
:10090C008AEF04F0D8901E361D2E88EF04F035C007
:10091C001FF0010E206E1F2A96EF04F0D89020369F
:10092C001F2E94EF04F034C021F0010E226E212A08
:10093C00A2EF04F0D8902236212EA0EF04F033C0A1
:10094C0023F0010E246E232AAEEF04F0D890243647
:10095C00232EACEF04F032C025F0010E266E252AB2
:10096C00BAEF04F0D8902636252EB8EF04F031C03B
:10097C0027F0010E286E272AC6EF04F0D8902836EF
:10098C00272EC4EF04F0285026102410221020101B
:10099C001E10FF0A296E2DC0D9FF2EC0DAFF295078
:1009AC00DF160CEF05F0800E2F1807E10F0E301834
:1009BC00D8A4E3EF04F0E5EF04F0E9EF04F0000E47
:1009CC00926E0CEF05F0810E2F1807E10F0E301808
:1009DC00D8A4F3EF04F0F5EF04F0F9EF04F0000EF7
:1009EC00936E0CEF05F0820E2F1807E10F0E3018E6
:1009FC00D8A403EF05F005EF05F009EF05F0000EA4
:100A0C00946E0CEF05F0000E55EF05F0680E1D6EA0
:100A1C00E40EE82EFED71D2EFCD700D031C01DF001
:100A2C00010E1E6E1D2A1DEF05F0D8901E361D2ED0
:100A3C001BEF05F01E50FF0A1F6E2FC0D9FF30C0F0
:100A4C00DAFF1F50DF16030E63EC07F01A0E1D6E53
:100A5C00F80EE82EFED71D2EFCD700D0030E63EC4B
:100A6C0007F0540E1D6E1C0EE82EFED71D2EFCD763
:100A7C0000D0030E63EC07F0020E63EC07F0280EB7
:100A8C003BEC08F0060E3BEC08F0080E2A6E2A84AC
:100A9C002A503BEC08F0010E3BEC08F0010E120062
:100AAC0089EC08F020EE3DF000EE13F0090EDBCFE0
:100ABC00EBFFE806FCE26FEC04F0010E3BEC08F0F7
:100ACC00800E3BEC08F0E30E126E060E136EC4ECB7
:100ADC0007F0C40E3BEC08F0D30E126E060E136E2C
:100AEC00C4EC07F0950E3BEC08F0C10E126E060E2E
:100AFC00136EC4EC07F0DF0E3BEC08F0F10E126E37
:100B0C00060E136EC4EC07F0150E2C6E4B0E2B6EEE
:100B1C00BE0EE82EFED72B2EFCD72C2EFAD700D0EB
:100B2C003B50D8B49CEF05F09EEF05F096EF05F026
:100B3C003C2A030E3C64A5EF05F0A7EF05F0A9EFE6
:100B4C0005F0010E3C6E010E3BEC08F0BDEF05F01C
:100B5C00000EC4EC06F0D6EF05F0010EC4EC06F066
:100B6C00D6EF05F0020EC4EC06F0D6EF05F03C50C3
:100B7C002B6E2C6A2C50000AD8B4C7EF05F0D6EFB8
:100B8C0005F02B50010AD8B4AEEF05F0030AD8B427
:100B9C00B3EF05F0010AD8B4B8EF05F0D6EF05F0C5
:100BAC00000E136E010E146E000E7EEC03F0000EA0
:100BBC00136E040E146E010E7EEC03F0000E136E19
:100BCC00070E146E020E7EEC03F0000E136E0A0E6E
:100BDC00146E030E7EEC03F0000E136E0D0E146EED
:100BEC00040E7EEC03F0020E136E050E146E050E51
:100BFC007EEC03F0020E136E080E146E060E7EECE5
:100C0C0003F0020E136E0B0E146E070E7EEC03F047
:100C1C00020E136E0E0E146E080E7EEC03F0020E16
:100C2C00136E110E146E090E7EEC03F0000E3B6E6B
:100C3C0096EF05F02DEF00F00A6E36C001F0010EB4
:100C4C00026E012A2CEF06F0D8900236012E2AEF04
:100C5C0006F035C003F0010E046E032A38EF06F0DF
:100C6C00D8900436032E36EF06F034C005F0010E92
:100C7C00066E052A44EF06F0D8900636052E42EF94
:100C8C0006F033C007F0010E086E072A50EF06F08D
:100C9C00D8900836072E4EEF06F0085006100410B8
:100CAC000210FF0A096E2FC0D9FF30C0DAFF0950BD
:100CBC00DF160AA064EF06F066EF06F078EF06F098
:100CCC0033C001F0010E026E012A6FEF06F0D890CE
:100CDC000236012E6DEF06F02FC0D9FF30C0DAFFBF
:100CEC000250DF120AA27DEF06F07FEF06F091EFC3
:100CFC0006F034C001F0010E026E012A88EF06F0F6
:100D0C00D8900236012E86EF06F02FC0D9FF30C0E6
:100D1C00DAFF0250DF120AA496EF06F098EF06F005
:100D2C00AAEF06F035C001F0010E026E012AA1EF08
:100D3C0006F0D8900236012E9FEF06F02FC0D9FF97
:100D4C0030C0DAFF0250DF120AA6AFEF06F0B1EFA7
:100D5C0006F0C3EF06F036C001F0010E026E012A58
:100D6C00BAEF06F0D8900236012EB8EF06F02FC07D
:100D7C00D9FF30C0DAFF0250DF121200226EE5EF0D
:100D8C0006F0810E236E060E246EB00E396E000E28
:100D9C003A6EFEEF06F0410E236E060E246E880EA0
:100DAC00396E000E3A6EFEEF06F0010E236E060E43
:100DBC00246E600E396E000E3A6EFEEF06F0225075
:100DCC00186E196A1950000AD8B4EFEF06F026EF26
:100DDC0007F01850000AD8B4C7EF06F0010AD8B4CF
:100DEC00D1EF06F0030AD8B4DBEF06F026EF07F0DC
:100DFC00000E256E1A0E016E000E026E2550080DA7
:100E0C00F3CF18F0F4CF19F018502324036E1950B7
:100E1C002420046E000E066E080E056EEFEC07F033
:100E2C001A0E136E000E146E255018EC08F0252ABD
:100E3C00070E256424EF07F026EF07F000EF07F00C
:100E4C001200FFFFFFFFFEFFFEFF00FFFF0100FF90
:100E5C0001FFFF01FEFFFF0001FFFF00FFFF00FF8E
:100E6C00FEFF02020303FFFF01FFFFFF0302040565
:100E7C00FE0506020306000201020701FE05030639
:100E8C000602030603020002FE050302030203022C
:100E9C000602040207FFFE05FE050002030600021F
:100EAC0001FF0701FE05030601FF030603FF000215
:100EBC00FE05030203FF0302FE020E6E0E5022EC2F
:100ECC0006F032C00BF0010E0C6E0B2A70EF07F01F
:100EDC00D8900C360B2E6EEF07F02FC0D9FF30C018
:100EEC00DAFF0C50DF12150E0B6EC60EE82EFED775
:100EFC000B2EFCD700D032C00BF0010E0C6E0B2A5F
:100F0C008AEF07F0D8900C360B2E88EF07F00C50B8
:100F1C00FF0A0D6E2FC0D9FF30C0DAFF0D50DF165F
:100F2C0012004E0EF66E0E0EF76E000EF86E00EE00
:100F3C0060F010EE78F00900F5CFEEFFE550E150CF
:100F4C00FAE12A0EF66E110EF76E000EF86E00EE38
:100F5C003DF010EE0AF00900F5CFEEFFE550E15040
:100F6C00FAE100EE2DF0100EEE6AE806FDE1479076
:100F7C004792000EF86E000156EF05F0000E176E4A
:100F8C00000E166EDAEF07F016501224146E17507E
:100F9C001320156E14C0F6FF15C0F7FF0800F550AE
:100FAC005BEC08F0164A172A16501224146E1750D0
:100FBC001320156E14C0F6FF15C0F7FF0800F5508E
:100FCC000009D8A4ECEF07F0EEEF07F0CAEF07F03A
:100FDC00120003C009F004C00AF001C007F002C0FF
:100FEC0008F00AEF08F009C0F6FF0AC0F7FF080086
:100FFC00F5CF0BF0094A0A2A07C0D9FF08C0DAFF5F
:10100C000BC0DFFF074A082A0506D8A006060528EC
:10101C0006E10628D8A415EF08F017EF08F0F9EF51
:10102C0007F01200166E16C015F0070E1516D890A4
:10103C001536D8901536D890153440093BEC08F08D
:10104C00000E176E17501324D96E000E1420DA6E92
:10105C00DF505BEC08F0172A070E176438EF08F026
:10106C003AEF08F028EF08F01200126E31C00FF0C2
:10107C00010E106E0F2A45EF08F0D89010360F2E87
:10108C0043EF08F01050FF0A116E2FC0D9FF30C08B
:10109C00DAFF1150DF1612380F0B0F0B63EC07F051
:1010AC0012500F0B63EC07F01200116E31C00FF0F1
:1010BC00010E106E0F2A65EF08F0D89010360F2E27
:1010CC0063EF08F02FC0D9FF30C0DAFF1050DF12E9
:1010DC0011380F0B0F0B63EC07F011500F0B63EC77
:1010EC0007F01200D58ED59CD59AD598D596F80ECA
:1010FC00D516F80ED76E300ED66EF294F28AF184B5
:10110C00D08EF28E1200000E0F01386F000E396F68
:10111C00000E3A6F700ED31278EC08F01200930F99
:08112C00810F00010405060714
:020000040020DA
:08000000FFFFFFFFFFFFFFFF00
:020000040030CA
:0E000000FF28193CFFB581FF0FC00FE00F4035
:00000001FF
